{
  "contractName": "Yokai",
  "abi": [
    {
      "inputs": [
        {
          "internalType": "string",
          "name": "initialURI",
          "type": "string"
        },
        {
          "internalType": "address",
          "name": "royaltyReceiver",
          "type": "address"
        }
      ],
      "stateMutability": "nonpayable",
      "type": "constructor"
    },
    {
      "anonymous": false,
      "inputs": [
        {
          "indexed": true,
          "internalType": "address",
          "name": "owner",
          "type": "address"
        },
        {
          "indexed": true,
          "internalType": "address",
          "name": "approved",
          "type": "address"
        },
        {
          "indexed": true,
          "internalType": "uint256",
          "name": "tokenId",
          "type": "uint256"
        }
      ],
      "name": "Approval",
      "type": "event"
    },
    {
      "anonymous": false,
      "inputs": [
        {
          "indexed": true,
          "internalType": "address",
          "name": "owner",
          "type": "address"
        },
        {
          "indexed": true,
          "internalType": "address",
          "name": "operator",
          "type": "address"
        },
        {
          "indexed": false,
          "internalType": "bool",
          "name": "approved",
          "type": "bool"
        }
      ],
      "name": "ApprovalForAll",
      "type": "event"
    },
    {
      "anonymous": false,
      "inputs": [
        {
          "indexed": true,
          "internalType": "address",
          "name": "previousOwner",
          "type": "address"
        },
        {
          "indexed": true,
          "internalType": "address",
          "name": "newOwner",
          "type": "address"
        }
      ],
      "name": "OwnershipTransferred",
      "type": "event"
    },
    {
      "anonymous": false,
      "inputs": [
        {
          "indexed": true,
          "internalType": "address",
          "name": "from",
          "type": "address"
        },
        {
          "indexed": true,
          "internalType": "address",
          "name": "to",
          "type": "address"
        },
        {
          "indexed": true,
          "internalType": "uint256",
          "name": "tokenId",
          "type": "uint256"
        }
      ],
      "name": "Transfer",
      "type": "event"
    },
    {
      "inputs": [],
      "name": "MINT_PER_PERS",
      "outputs": [
        {
          "internalType": "uint256",
          "name": "",
          "type": "uint256"
        }
      ],
      "stateMutability": "view",
      "type": "function",
      "constant": true
    },
    {
      "inputs": [],
      "name": "REVEAL",
      "outputs": [
        {
          "internalType": "bool",
          "name": "",
          "type": "bool"
        }
      ],
      "stateMutability": "view",
      "type": "function",
      "constant": true
    },
    {
      "inputs": [],
      "name": "URI",
      "outputs": [
        {
          "internalType": "string",
          "name": "",
          "type": "string"
        }
      ],
      "stateMutability": "view",
      "type": "function",
      "constant": true
    },
    {
      "inputs": [
        {
          "internalType": "address",
          "name": "to",
          "type": "address"
        },
        {
          "internalType": "uint256",
          "name": "tokenId",
          "type": "uint256"
        }
      ],
      "name": "approve",
      "outputs": [],
      "stateMutability": "nonpayable",
      "type": "function"
    },
    {
      "inputs": [
        {
          "internalType": "address",
          "name": "owner",
          "type": "address"
        }
      ],
      "name": "balanceOf",
      "outputs": [
        {
          "internalType": "uint256",
          "name": "",
          "type": "uint256"
        }
      ],
      "stateMutability": "view",
      "type": "function",
      "constant": true
    },
    {
      "inputs": [
        {
          "internalType": "uint256",
          "name": "tokenId",
          "type": "uint256"
        }
      ],
      "name": "getApproved",
      "outputs": [
        {
          "internalType": "address",
          "name": "",
          "type": "address"
        }
      ],
      "stateMutability": "view",
      "type": "function",
      "constant": true
    },
    {
      "inputs": [
        {
          "internalType": "address",
          "name": "owner",
          "type": "address"
        },
        {
          "internalType": "address",
          "name": "operator",
          "type": "address"
        }
      ],
      "name": "isApprovedForAll",
      "outputs": [
        {
          "internalType": "bool",
          "name": "",
          "type": "bool"
        }
      ],
      "stateMutability": "view",
      "type": "function",
      "constant": true
    },
    {
      "inputs": [],
      "name": "merkleRoot",
      "outputs": [
        {
          "internalType": "bytes32",
          "name": "",
          "type": "bytes32"
        }
      ],
      "stateMutability": "view",
      "type": "function",
      "constant": true
    },
    {
      "inputs": [],
      "name": "name",
      "outputs": [
        {
          "internalType": "string",
          "name": "",
          "type": "string"
        }
      ],
      "stateMutability": "view",
      "type": "function",
      "constant": true
    },
    {
      "inputs": [],
      "name": "owner",
      "outputs": [
        {
          "internalType": "address",
          "name": "",
          "type": "address"
        }
      ],
      "stateMutability": "view",
      "type": "function",
      "constant": true
    },
    {
      "inputs": [
        {
          "internalType": "uint256",
          "name": "tokenId",
          "type": "uint256"
        }
      ],
      "name": "ownerOf",
      "outputs": [
        {
          "internalType": "address",
          "name": "",
          "type": "address"
        }
      ],
      "stateMutability": "view",
      "type": "function",
      "constant": true
    },
    {
      "inputs": [],
      "name": "public_sale",
      "outputs": [
        {
          "internalType": "bool",
          "name": "",
          "type": "bool"
        }
      ],
      "stateMutability": "view",
      "type": "function",
      "constant": true
    },
    {
      "inputs": [],
      "name": "renounceOwnership",
      "outputs": [],
      "stateMutability": "nonpayable",
      "type": "function"
    },
    {
      "inputs": [
        {
          "internalType": "uint256",
          "name": "_tokenId",
          "type": "uint256"
        },
        {
          "internalType": "uint256",
          "name": "_salePrice",
          "type": "uint256"
        }
      ],
      "name": "royaltyInfo",
      "outputs": [
        {
          "internalType": "address",
          "name": "",
          "type": "address"
        },
        {
          "internalType": "uint256",
          "name": "",
          "type": "uint256"
        }
      ],
      "stateMutability": "view",
      "type": "function",
      "constant": true
    },
    {
      "inputs": [
        {
          "internalType": "address",
          "name": "from",
          "type": "address"
        },
        {
          "internalType": "address",
          "name": "to",
          "type": "address"
        },
        {
          "internalType": "uint256",
          "name": "tokenId",
          "type": "uint256"
        }
      ],
      "name": "safeTransferFrom",
      "outputs": [],
      "stateMutability": "nonpayable",
      "type": "function"
    },
    {
      "inputs": [
        {
          "internalType": "address",
          "name": "from",
          "type": "address"
        },
        {
          "internalType": "address",
          "name": "to",
          "type": "address"
        },
        {
          "internalType": "uint256",
          "name": "tokenId",
          "type": "uint256"
        },
        {
          "internalType": "bytes",
          "name": "_data",
          "type": "bytes"
        }
      ],
      "name": "safeTransferFrom",
      "outputs": [],
      "stateMutability": "nonpayable",
      "type": "function"
    },
    {
      "inputs": [
        {
          "internalType": "address",
          "name": "operator",
          "type": "address"
        },
        {
          "internalType": "bool",
          "name": "approved",
          "type": "bool"
        }
      ],
      "name": "setApprovalForAll",
      "outputs": [],
      "stateMutability": "nonpayable",
      "type": "function"
    },
    {
      "inputs": [],
      "name": "symbol",
      "outputs": [
        {
          "internalType": "string",
          "name": "",
          "type": "string"
        }
      ],
      "stateMutability": "view",
      "type": "function",
      "constant": true
    },
    {
      "inputs": [
        {
          "internalType": "uint256",
          "name": "index",
          "type": "uint256"
        }
      ],
      "name": "tokenByIndex",
      "outputs": [
        {
          "internalType": "uint256",
          "name": "",
          "type": "uint256"
        }
      ],
      "stateMutability": "view",
      "type": "function",
      "constant": true
    },
    {
      "inputs": [
        {
          "internalType": "address",
          "name": "owner",
          "type": "address"
        },
        {
          "internalType": "uint256",
          "name": "index",
          "type": "uint256"
        }
      ],
      "name": "tokenOfOwnerByIndex",
      "outputs": [
        {
          "internalType": "uint256",
          "name": "",
          "type": "uint256"
        }
      ],
      "stateMutability": "view",
      "type": "function",
      "constant": true
    },
    {
      "inputs": [],
      "name": "tokenPrice",
      "outputs": [
        {
          "internalType": "uint256",
          "name": "",
          "type": "uint256"
        }
      ],
      "stateMutability": "view",
      "type": "function",
      "constant": true
    },
    {
      "inputs": [],
      "name": "totalSupply",
      "outputs": [
        {
          "internalType": "uint256",
          "name": "",
          "type": "uint256"
        }
      ],
      "stateMutability": "view",
      "type": "function",
      "constant": true
    },
    {
      "inputs": [
        {
          "internalType": "address",
          "name": "from",
          "type": "address"
        },
        {
          "internalType": "address",
          "name": "to",
          "type": "address"
        },
        {
          "internalType": "uint256",
          "name": "tokenId",
          "type": "uint256"
        }
      ],
      "name": "transferFrom",
      "outputs": [],
      "stateMutability": "nonpayable",
      "type": "function"
    },
    {
      "inputs": [
        {
          "internalType": "address",
          "name": "newOwner",
          "type": "address"
        }
      ],
      "name": "transferOwnership",
      "outputs": [],
      "stateMutability": "nonpayable",
      "type": "function"
    },
    {
      "inputs": [
        {
          "internalType": "address",
          "name": "",
          "type": "address"
        }
      ],
      "name": "whitelist",
      "outputs": [
        {
          "internalType": "bool",
          "name": "",
          "type": "bool"
        }
      ],
      "stateMutability": "view",
      "type": "function",
      "constant": true
    },
    {
      "inputs": [
        {
          "internalType": "bytes4",
          "name": "interfaceId",
          "type": "bytes4"
        }
      ],
      "name": "supportsInterface",
      "outputs": [
        {
          "internalType": "bool",
          "name": "",
          "type": "bool"
        }
      ],
      "stateMutability": "view",
      "type": "function",
      "constant": true
    },
    {
      "inputs": [
        {
          "internalType": "address",
          "name": "receiver",
          "type": "address"
        },
        {
          "internalType": "uint96",
          "name": "feeNumerator",
          "type": "uint96"
        }
      ],
      "name": "setDefaultRoyalty",
      "outputs": [],
      "stateMutability": "nonpayable",
      "type": "function"
    },
    {
      "inputs": [
        {
          "internalType": "bytes32",
          "name": "_root",
          "type": "bytes32"
        }
      ],
      "name": "setWhitelistRoot",
      "outputs": [],
      "stateMutability": "nonpayable",
      "type": "function"
    },
    {
      "inputs": [
        {
          "internalType": "uint256",
          "name": "tokenId",
          "type": "uint256"
        }
      ],
      "name": "tokenURI",
      "outputs": [
        {
          "internalType": "string",
          "name": "",
          "type": "string"
        }
      ],
      "stateMutability": "view",
      "type": "function",
      "constant": true
    },
    {
      "inputs": [
        {
          "internalType": "string",
          "name": "updatedURI",
          "type": "string"
        }
      ],
      "name": "toggleReveal",
      "outputs": [],
      "stateMutability": "nonpayable",
      "type": "function"
    },
    {
      "inputs": [],
      "name": "switchSaleType",
      "outputs": [],
      "stateMutability": "nonpayable",
      "type": "function"
    },
    {
      "inputs": [
        {
          "internalType": "address",
          "name": "receiver",
          "type": "address"
        }
      ],
      "name": "updateSaleReceiver",
      "outputs": [],
      "stateMutability": "nonpayable",
      "type": "function"
    },
    {
      "inputs": [
        {
          "internalType": "uint256",
          "name": "price",
          "type": "uint256"
        }
      ],
      "name": "setPrice",
      "outputs": [],
      "stateMutability": "nonpayable",
      "type": "function"
    },
    {
      "inputs": [
        {
          "internalType": "uint256",
          "name": "numberMax",
          "type": "uint256"
        }
      ],
      "name": "setMaxMintPerPerson",
      "outputs": [],
      "stateMutability": "nonpayable",
      "type": "function"
    },
    {
      "inputs": [
        {
          "internalType": "bytes32[]",
          "name": "_merkleProof",
          "type": "bytes32[]"
        }
      ],
      "name": "whitelistMint",
      "outputs": [],
      "stateMutability": "payable",
      "type": "function",
      "payable": true
    },
    {
      "inputs": [
        {
          "internalType": "uint256",
          "name": "num",
          "type": "uint256"
        }
      ],
      "name": "mint",
      "outputs": [],
      "stateMutability": "payable",
      "type": "function",
      "payable": true
    }
  ],
  "bytecode": "0x6080604052610328600d556004600e557f1430dc8121327593cc6a9dda199e0ddb7e3f053323e3142cdf7a7d1a71feab8260001b6010556000601260146101000a81548160ff0219169083151502179055506000601260156101000a81548160ff0219169083151502179055503480156200007957600080fd5b5060405162005a7438038062005a7483398181016040528101906200009f919062000926565b6040518060400160405280600581526020017f596f6b61690000000000000000000000000000000000000000000000000000008152506040518060400160405280600381526020017f594f4b000000000000000000000000000000000000000000000000000000000081525081600090805190602001906200012392919062000674565b5080600190805190602001906200013c92919062000674565b5050506200015f62000153620001be60201b60201c565b620001c660201b60201c565b81601190805190602001906200017792919062000674565b50620001916702a303fe4b5300006200028c60201b60201c565b620001a5816103846200032560201b60201c565b620001b681620003ca60201b60201c565b505062000b7d565b600033905090565b6000600a60009054906101000a900473ffffffffffffffffffffffffffffffffffffffff16905081600a60006101000a81548173ffffffffffffffffffffffffffffffffffffffff021916908373ffffffffffffffffffffffffffffffffffffffff1602179055508173ffffffffffffffffffffffffffffffffffffffff168173ffffffffffffffffffffffffffffffffffffffff167f8be0079c531659141344cd1fd0a4f28419497f9722a3daafe3b4186f6b6457e060405160405180910390a35050565b6200029c620001be60201b60201c565b73ffffffffffffffffffffffffffffffffffffffff16620002c26200049d60201b60201c565b73ffffffffffffffffffffffffffffffffffffffff16146200031b576040517f08c379a00000000000000000000000000000000000000000000000000000000081526004016200031290620009ed565b60405180910390fd5b80600f8190555050565b62000335620001be60201b60201c565b73ffffffffffffffffffffffffffffffffffffffff166200035b6200049d60201b60201c565b73ffffffffffffffffffffffffffffffffffffffff1614620003b4576040517f08c379a0000000000000000000000000000000000000000000000000000000008152600401620003ab90620009ed565b60405180910390fd5b620003c68282620004c760201b60201c565b5050565b620003da620001be60201b60201c565b73ffffffffffffffffffffffffffffffffffffffff16620004006200049d60201b60201c565b73ffffffffffffffffffffffffffffffffffffffff161462000459576040517f08c379a00000000000000000000000000000000000000000000000000000000081526004016200045090620009ed565b60405180910390fd5b80601260006101000a81548173ffffffffffffffffffffffffffffffffffffffff021916908373ffffffffffffffffffffffffffffffffffffffff16021790555050565b6000600a60009054906101000a900473ffffffffffffffffffffffffffffffffffffffff16905090565b620004d76200066a60201b60201c565b6bffffffffffffffffffffffff16816bffffffffffffffffffffffff16111562000538576040517f08c379a00000000000000000000000000000000000000000000000000000000081526004016200052f9062000a85565b60405180910390fd5b600073ffffffffffffffffffffffffffffffffffffffff168273ffffffffffffffffffffffffffffffffffffffff1603620005aa576040517f08c379a0000000000000000000000000000000000000000000000000000000008152600401620005a19062000af7565b60405180910390fd5b60405180604001604052808373ffffffffffffffffffffffffffffffffffffffff168152602001826bffffffffffffffffffffffff16815250600b60008201518160000160006101000a81548173ffffffffffffffffffffffffffffffffffffffff021916908373ffffffffffffffffffffffffffffffffffffffff16021790555060208201518160000160146101000a8154816bffffffffffffffffffffffff02191690836bffffffffffffffffffffffff1602179055509050505050565b6000612710905090565b828054620006829062000b48565b90600052602060002090601f016020900481019282620006a65760008555620006f2565b82601f10620006c157805160ff1916838001178555620006f2565b82800160010185558215620006f2579182015b82811115620006f1578251825591602001919060010190620006d4565b5b50905062000701919062000705565b5090565b5b808211156200072057600081600090555060010162000706565b5090565b6000604051905090565b600080fd5b600080fd5b600080fd5b600080fd5b6000601f19601f8301169050919050565b7f4e487b7100000000000000000000000000000000000000000000000000000000600052604160045260246000fd5b6200078d8262000742565b810181811067ffffffffffffffff82111715620007af57620007ae62000753565b5b80604052505050565b6000620007c462000724565b9050620007d2828262000782565b919050565b600067ffffffffffffffff821115620007f557620007f462000753565b5b620008008262000742565b9050602081019050919050565b60005b838110156200082d57808201518184015260208101905062000810565b838111156200083d576000848401525b50505050565b60006200085a6200085484620007d7565b620007b8565b9050828152602081018484840111156200087957620008786200073d565b5b620008868482856200080d565b509392505050565b600082601f830112620008a657620008a562000738565b5b8151620008b884826020860162000843565b91505092915050565b600073ffffffffffffffffffffffffffffffffffffffff82169050919050565b6000620008ee82620008c1565b9050919050565b6200090081620008e1565b81146200090c57600080fd5b50565b6000815190506200092081620008f5565b92915050565b6000806040838503121562000940576200093f6200072e565b5b600083015167ffffffffffffffff81111562000961576200096062000733565b5b6200096f858286016200088e565b925050602062000982858286016200090f565b9150509250929050565b600082825260208201905092915050565b7f4f776e61626c653a2063616c6c6572206973206e6f7420746865206f776e6572600082015250565b6000620009d56020836200098c565b9150620009e2826200099d565b602082019050919050565b6000602082019050818103600083015262000a0881620009c6565b9050919050565b7f455243323938313a20726f79616c7479206665652077696c6c2065786365656460008201527f2073616c65507269636500000000000000000000000000000000000000000000602082015250565b600062000a6d602a836200098c565b915062000a7a8262000a0f565b604082019050919050565b6000602082019050818103600083015262000aa08162000a5e565b9050919050565b7f455243323938313a20696e76616c696420726563656976657200000000000000600082015250565b600062000adf6019836200098c565b915062000aec8262000aa7565b602082019050919050565b6000602082019050818103600083015262000b128162000ad0565b9050919050565b7f4e487b7100000000000000000000000000000000000000000000000000000000600052602260045260246000fd5b6000600282049050600182168062000b6157607f821691505b60208210810362000b775762000b7662000b19565b5b50919050565b614ee78062000b8d6000396000f3fe60806040526004361061020f5760003560e01c80636352211e1161011857806395d89b41116100a0578063b88d4fde1161006f578063b88d4fde14610782578063c87b56dd146107ab578063e985e9c5146107e8578063f2fde38b14610825578063f5aa406d1461084e5761020f565b806395d89b41146106d55780639b19251a14610700578063a0712d681461073d578063a22cb465146107595761020f565b806382651bd0116100e757806382651bd0146106025780638da5cb5b1461062d57806391b7f5ed1461065857806391ed094d1461068157806395bd19c2146106ac5761020f565b80636352211e1461054657806370a0823114610583578063715018a6146105c05780637ff9b596146105d75761020f565b80632a55205a1161019b5780633caf54591161016a5780633caf54591461046357806342842e0e1461048c57806348c6e8a1146104b55780634f6ccce7146104e05780635d8c2efd1461051d5761020f565b80632a55205a146103a15780632eb4a7ab146103df5780632f745c591461040a578063372f657c146104475761020f565b8063095ea7b3116101e2578063095ea7b3146102e25780631141d7de1461030b57806318160ddd146103365780631f815d5c1461036157806323b872dd146103785761020f565b806301ffc9a71461021457806304634d8d1461025157806306fdde031461027a578063081812fc146102a5575b600080fd5b34801561022057600080fd5b5061023b60048036038101906102369190613459565b610877565b60405161024891906134a1565b60405180910390f35b34801561025d57600080fd5b506102786004803603810190610273919061355e565b610889565b005b34801561028657600080fd5b5061028f610913565b60405161029c9190613637565b60405180910390f35b3480156102b157600080fd5b506102cc60048036038101906102c7919061368f565b6109a5565b6040516102d991906136cb565b60405180910390f35b3480156102ee57600080fd5b50610309600480360381019061030491906136e6565b610a2a565b005b34801561031757600080fd5b50610320610b41565b60405161032d9190613637565b60405180910390f35b34801561034257600080fd5b5061034b610bcf565b6040516103589190613735565b60405180910390f35b34801561036d57600080fd5b50610376610bdc565b005b34801561038457600080fd5b5061039f600480360381019061039a9190613750565b610c84565b005b3480156103ad57600080fd5b506103c860048036038101906103c391906137a3565b610ce4565b6040516103d69291906137e3565b60405180910390f35b3480156103eb57600080fd5b506103f4610ece565b6040516104019190613825565b60405180910390f35b34801561041657600080fd5b50610431600480360381019061042c91906136e6565b610ed4565b60405161043e9190613735565b60405180910390f35b610461600480360381019061045c91906138a5565b610f79565b005b34801561046f57600080fd5b5061048a600480360381019061048591906138f2565b61125e565b005b34801561049857600080fd5b506104b360048036038101906104ae9190613750565b61131e565b005b3480156104c157600080fd5b506104ca61133e565b6040516104d79190613735565b60405180910390f35b3480156104ec57600080fd5b506105076004803603810190610502919061368f565b611344565b6040516105149190613735565b60405180910390f35b34801561052957600080fd5b50610544600480360381019061053f9190613a4f565b6113b5565b005b34801561055257600080fd5b5061056d6004803603810190610568919061368f565b611475565b60405161057a91906136cb565b60405180910390f35b34801561058f57600080fd5b506105aa60048036038101906105a591906138f2565b611526565b6040516105b79190613735565b60405180910390f35b3480156105cc57600080fd5b506105d56115dd565b005b3480156105e357600080fd5b506105ec611665565b6040516105f99190613735565b60405180910390f35b34801561060e57600080fd5b5061061761166b565b60405161062491906134a1565b60405180910390f35b34801561063957600080fd5b5061064261167e565b60405161064f91906136cb565b60405180910390f35b34801561066457600080fd5b5061067f600480360381019061067a919061368f565b6116a8565b005b34801561068d57600080fd5b5061069661172e565b6040516106a391906134a1565b60405180910390f35b3480156106b857600080fd5b506106d360048036038101906106ce919061368f565b611741565b005b3480156106e157600080fd5b506106ea6117c7565b6040516106f79190613637565b60405180910390f35b34801561070c57600080fd5b50610727600480360381019061072291906138f2565b611859565b60405161073491906134a1565b60405180910390f35b6107576004803603810190610752919061368f565b611879565b005b34801561076557600080fd5b50610780600480360381019061077b9190613ac4565b611ae6565b005b34801561078e57600080fd5b506107a960048036038101906107a49190613ba5565b611afc565b005b3480156107b757600080fd5b506107d260048036038101906107cd919061368f565b611b5e565b6040516107df9190613637565b60405180910390f35b3480156107f457600080fd5b5061080f600480360381019061080a9190613c28565b611c3a565b60405161081c91906134a1565b60405180910390f35b34801561083157600080fd5b5061084c600480360381019061084791906138f2565b611cce565b005b34801561085a57600080fd5b5061087560048036038101906108709190613c94565b611dc5565b005b600061088282611e4b565b9050919050565b610891611ec5565b73ffffffffffffffffffffffffffffffffffffffff166108af61167e565b73ffffffffffffffffffffffffffffffffffffffff1614610905576040517f08c379a00000000000000000000000000000000000000000000000000000000081526004016108fc90613d0d565b60405180910390fd5b61090f8282611ecd565b5050565b60606000805461092290613d5c565b80601f016020809104026020016040519081016040528092919081815260200182805461094e90613d5c565b801561099b5780601f106109705761010080835404028352916020019161099b565b820191906000526020600020905b81548152906001019060200180831161097e57829003601f168201915b5050505050905090565b60006109b082612062565b6109ef576040517f08c379a00000000000000000000000000000000000000000000000000000000081526004016109e690613dff565b60405180910390fd5b6004600083815260200190815260200160002060009054906101000a900473ffffffffffffffffffffffffffffffffffffffff169050919050565b6000610a3582611475565b90508073ffffffffffffffffffffffffffffffffffffffff168373ffffffffffffffffffffffffffffffffffffffff1603610aa5576040517f08c379a0000000000000000000000000000000000000000000000000000000008152600401610a9c90613e91565b60405180910390fd5b8073ffffffffffffffffffffffffffffffffffffffff16610ac4611ec5565b73ffffffffffffffffffffffffffffffffffffffff161480610af35750610af281610aed611ec5565b611c3a565b5b610b32576040517f08c379a0000000000000000000000000000000000000000000000000000000008152600401610b2990613f23565b60405180910390fd5b610b3c83836120ce565b505050565b60118054610b4e90613d5c565b80601f0160208091040260200160405190810160405280929190818152602001828054610b7a90613d5c565b8015610bc75780601f10610b9c57610100808354040283529160200191610bc7565b820191906000526020600020905b815481529060010190602001808311610baa57829003601f168201915b505050505081565b6000600880549050905090565b610be4611ec5565b73ffffffffffffffffffffffffffffffffffffffff16610c0261167e565b73ffffffffffffffffffffffffffffffffffffffff1614610c58576040517f08c379a0000000000000000000000000000000000000000000000000000000008152600401610c4f90613d0d565b60405180910390fd5b601260159054906101000a900460ff1615601260156101000a81548160ff021916908315150217905550565b610c95610c8f611ec5565b82612187565b610cd4576040517f08c379a0000000000000000000000000000000000000000000000000000000008152600401610ccb90613fb5565b60405180910390fd5b610cdf838383612265565b505050565b6000806000600c60008681526020019081526020016000206040518060400160405290816000820160009054906101000a900473ffffffffffffffffffffffffffffffffffffffff1673ffffffffffffffffffffffffffffffffffffffff1673ffffffffffffffffffffffffffffffffffffffff1681526020016000820160149054906101000a90046bffffffffffffffffffffffff166bffffffffffffffffffffffff166bffffffffffffffffffffffff16815250509050600073ffffffffffffffffffffffffffffffffffffffff16816000015173ffffffffffffffffffffffffffffffffffffffff1603610e7957600b6040518060400160405290816000820160009054906101000a900473ffffffffffffffffffffffffffffffffffffffff1673ffffffffffffffffffffffffffffffffffffffff1673ffffffffffffffffffffffffffffffffffffffff1681526020016000820160149054906101000a90046bffffffffffffffffffffffff166bffffffffffffffffffffffff166bffffffffffffffffffffffff168152505090505b6000610e836124cb565b6bffffffffffffffffffffffff1682602001516bffffffffffffffffffffffff1686610eaf9190614004565b610eb9919061408d565b90508160000151819350935050509250929050565b60105481565b6000610edf83611526565b8210610f20576040517f08c379a0000000000000000000000000000000000000000000000000000000008152600401610f1790614130565b60405180910390fd5b600660008473ffffffffffffffffffffffffffffffffffffffff1673ffffffffffffffffffffffffffffffffffffffff168152602001908152602001600020600083815260200190815260200160002054905092915050565b601260159054906101000a900460ff1615610fc9576040517f08c379a0000000000000000000000000000000000000000000000000000000008152600401610fc09061419c565b60405180910390fd5b600f5434101561100e576040517f08c379a000000000000000000000000000000000000000000000000000000000815260040161100590614208565b60405180910390fd5b600d54611019610bcf565b10611059576040517f08c379a000000000000000000000000000000000000000000000000000000000815260040161105090614274565b60405180910390fd5b3273ffffffffffffffffffffffffffffffffffffffff163373ffffffffffffffffffffffffffffffffffffffff16146110c7576040517f08c379a00000000000000000000000000000000000000000000000000000000081526004016110be906142e0565b60405180910390fd5b60016110d233611526565b10611112576040517f08c379a00000000000000000000000000000000000000000000000000000000081526004016111099061434c565b60405180910390fd5b60003360405160200161112591906143b4565b60405160208183030381529060405280519060200120905061118b838380806020026020016040519081016040528093929190818152602001838360200280828437600081840152601f19601f82011690508083019250505050505050601054836124d5565b6111ca576040517f08c379a00000000000000000000000000000000000000000000000000000000081526004016111c19061441b565b60405180910390fd5b60006111d4610bcf565b90506001816111e3919061443b565b90506111ef33826124ec565b601260009054906101000a900473ffffffffffffffffffffffffffffffffffffffff1673ffffffffffffffffffffffffffffffffffffffff166108fc349081150290604051600060405180830381858888f19350505050158015611257573d6000803e3d6000fd5b5050505050565b611266611ec5565b73ffffffffffffffffffffffffffffffffffffffff1661128461167e565b73ffffffffffffffffffffffffffffffffffffffff16146112da576040517f08c379a00000000000000000000000000000000000000000000000000000000081526004016112d190613d0d565b60405180910390fd5b80601260006101000a81548173ffffffffffffffffffffffffffffffffffffffff021916908373ffffffffffffffffffffffffffffffffffffffff16021790555050565b61133983838360405180602001604052806000815250611afc565b505050565b600e5481565b600061134e610bcf565b821061138f576040517f08c379a000000000000000000000000000000000000000000000000000000000815260040161138690614503565b60405180910390fd5b600882815481106113a3576113a2614523565b5b90600052602060002001549050919050565b6113bd611ec5565b73ffffffffffffffffffffffffffffffffffffffff166113db61167e565b73ffffffffffffffffffffffffffffffffffffffff1614611431576040517f08c379a000000000000000000000000000000000000000000000000000000000815260040161142890613d0d565b60405180910390fd5b601260149054906101000a900460ff1615601260146101000a81548160ff021916908315150217905550806011908051906020019061147192919061334a565b5050565b6000806002600084815260200190815260200160002060009054906101000a900473ffffffffffffffffffffffffffffffffffffffff169050600073ffffffffffffffffffffffffffffffffffffffff168173ffffffffffffffffffffffffffffffffffffffff160361151d576040517f08c379a0000000000000000000000000000000000000000000000000000000008152600401611514906145c4565b60405180910390fd5b80915050919050565b60008073ffffffffffffffffffffffffffffffffffffffff168273ffffffffffffffffffffffffffffffffffffffff1603611596576040517f08c379a000000000000000000000000000000000000000000000000000000000815260040161158d90614656565b60405180910390fd5b600360008373ffffffffffffffffffffffffffffffffffffffff1673ffffffffffffffffffffffffffffffffffffffff168152602001908152602001600020549050919050565b6115e5611ec5565b73ffffffffffffffffffffffffffffffffffffffff1661160361167e565b73ffffffffffffffffffffffffffffffffffffffff1614611659576040517f08c379a000000000000000000000000000000000000000000000000000000000815260040161165090613d0d565b60405180910390fd5b611663600061250a565b565b600f5481565b601260149054906101000a900460ff1681565b6000600a60009054906101000a900473ffffffffffffffffffffffffffffffffffffffff16905090565b6116b0611ec5565b73ffffffffffffffffffffffffffffffffffffffff166116ce61167e565b73ffffffffffffffffffffffffffffffffffffffff1614611724576040517f08c379a000000000000000000000000000000000000000000000000000000000815260040161171b90613d0d565b60405180910390fd5b80600f8190555050565b601260159054906101000a900460ff1681565b611749611ec5565b73ffffffffffffffffffffffffffffffffffffffff1661176761167e565b73ffffffffffffffffffffffffffffffffffffffff16146117bd576040517f08c379a00000000000000000000000000000000000000000000000000000000081526004016117b490613d0d565b60405180910390fd5b80600e8190555050565b6060600180546117d690613d5c565b80601f016020809104026020016040519081016040528092919081815260200182805461180290613d5c565b801561184f5780601f106118245761010080835404028352916020019161184f565b820191906000526020600020905b81548152906001019060200180831161183257829003601f168201915b5050505050905090565b60136020528060005260406000206000915054906101000a900460ff1681565b601260159054906101000a900460ff166118c8576040517f08c379a00000000000000000000000000000000000000000000000000000000081526004016118bf906146c2565b60405180910390fd5b80600f546118d69190614004565b341015611918576040517f08c379a000000000000000000000000000000000000000000000000000000000815260040161190f90614208565b60405180910390fd5b600d5481611924610bcf565b61192e919061443b565b111561196f576040517f08c379a000000000000000000000000000000000000000000000000000000000815260040161196690614274565b60405180910390fd5b3273ffffffffffffffffffffffffffffffffffffffff163373ffffffffffffffffffffffffffffffffffffffff16146119dd576040517f08c379a00000000000000000000000000000000000000000000000000000000081526004016119d4906142e0565b60405180910390fd5b600e54816119ea33611526565b6119f4919061443b565b1115611a35576040517f08c379a0000000000000000000000000000000000000000000000000000000008152600401611a2c9061434c565b60405180910390fd5b6000611a3f610bcf565b905060005b82811015611a7857600182611a59919061443b565b9150611a6533836124ec565b8080611a70906146e2565b915050611a44565b50601260009054906101000a900473ffffffffffffffffffffffffffffffffffffffff1673ffffffffffffffffffffffffffffffffffffffff166108fc349081150290604051600060405180830381858888f19350505050158015611ae1573d6000803e3d6000fd5b505050565b611af8611af1611ec5565b83836125d0565b5050565b611b0d611b07611ec5565b83612187565b611b4c576040517f08c379a0000000000000000000000000000000000000000000000000000000008152600401611b4390613fb5565b60405180910390fd5b611b588484848461273c565b50505050565b6060601260149054906101000a900460ff1615611ba7576011611b8083612798565b604051602001611b919291906147fa565b6040516020818303038152906040529050611c35565b60118054611bb490613d5c565b80601f0160208091040260200160405190810160405280929190818152602001828054611be090613d5c565b8015611c2d5780601f10611c0257610100808354040283529160200191611c2d565b820191906000526020600020905b815481529060010190602001808311611c1057829003601f168201915b505050505090505b919050565b6000600560008473ffffffffffffffffffffffffffffffffffffffff1673ffffffffffffffffffffffffffffffffffffffff16815260200190815260200160002060008373ffffffffffffffffffffffffffffffffffffffff1673ffffffffffffffffffffffffffffffffffffffff16815260200190815260200160002060009054906101000a900460ff16905092915050565b611cd6611ec5565b73ffffffffffffffffffffffffffffffffffffffff16611cf461167e565b73ffffffffffffffffffffffffffffffffffffffff1614611d4a576040517f08c379a0000000000000000000000000000000000000000000000000000000008152600401611d4190613d0d565b60405180910390fd5b600073ffffffffffffffffffffffffffffffffffffffff168173ffffffffffffffffffffffffffffffffffffffff1603611db9576040517f08c379a0000000000000000000000000000000000000000000000000000000008152600401611db090614890565b60405180910390fd5b611dc28161250a565b50565b611dcd611ec5565b73ffffffffffffffffffffffffffffffffffffffff16611deb61167e565b73ffffffffffffffffffffffffffffffffffffffff1614611e41576040517f08c379a0000000000000000000000000000000000000000000000000000000008152600401611e3890613d0d565b60405180910390fd5b8060108190555050565b60007f2a55205a000000000000000000000000000000000000000000000000000000007bffffffffffffffffffffffffffffffffffffffffffffffffffffffff1916827bffffffffffffffffffffffffffffffffffffffffffffffffffffffff19161480611ebe5750611ebd826128f8565b5b9050919050565b600033905090565b611ed56124cb565b6bffffffffffffffffffffffff16816bffffffffffffffffffffffff161115611f33576040517f08c379a0000000000000000000000000000000000000000000000000000000008152600401611f2a90614922565b60405180910390fd5b600073ffffffffffffffffffffffffffffffffffffffff168273ffffffffffffffffffffffffffffffffffffffff1603611fa2576040517f08c379a0000000000000000000000000000000000000000000000000000000008152600401611f999061498e565b60405180910390fd5b60405180604001604052808373ffffffffffffffffffffffffffffffffffffffff168152602001826bffffffffffffffffffffffff16815250600b60008201518160000160006101000a81548173ffffffffffffffffffffffffffffffffffffffff021916908373ffffffffffffffffffffffffffffffffffffffff16021790555060208201518160000160146101000a8154816bffffffffffffffffffffffff02191690836bffffffffffffffffffffffff1602179055509050505050565b60008073ffffffffffffffffffffffffffffffffffffffff166002600084815260200190815260200160002060009054906101000a900473ffffffffffffffffffffffffffffffffffffffff1673ffffffffffffffffffffffffffffffffffffffff1614159050919050565b816004600083815260200190815260200160002060006101000a81548173ffffffffffffffffffffffffffffffffffffffff021916908373ffffffffffffffffffffffffffffffffffffffff160217905550808273ffffffffffffffffffffffffffffffffffffffff1661214183611475565b73ffffffffffffffffffffffffffffffffffffffff167f8c5be1e5ebec7d5bd14f71427d1e84f3dd0314c0f7b2291e5b200ac8c7c3b92560405160405180910390a45050565b600061219282612062565b6121d1576040517f08c379a00000000000000000000000000000000000000000000000000000000081526004016121c890614a20565b60405180910390fd5b60006121dc83611475565b90508073ffffffffffffffffffffffffffffffffffffffff168473ffffffffffffffffffffffffffffffffffffffff16148061224b57508373ffffffffffffffffffffffffffffffffffffffff16612233846109a5565b73ffffffffffffffffffffffffffffffffffffffff16145b8061225c575061225b8185611c3a565b5b91505092915050565b8273ffffffffffffffffffffffffffffffffffffffff1661228582611475565b73ffffffffffffffffffffffffffffffffffffffff16146122db576040517f08c379a00000000000000000000000000000000000000000000000000000000081526004016122d290614ab2565b60405180910390fd5b600073ffffffffffffffffffffffffffffffffffffffff168273ffffffffffffffffffffffffffffffffffffffff160361234a576040517f08c379a000000000000000000000000000000000000000000000000000000000815260040161234190614b44565b60405180910390fd5b612355838383612972565b6123606000826120ce565b6001600360008573ffffffffffffffffffffffffffffffffffffffff1673ffffffffffffffffffffffffffffffffffffffff16815260200190815260200160002060008282546123b09190614b64565b925050819055506001600360008473ffffffffffffffffffffffffffffffffffffffff1673ffffffffffffffffffffffffffffffffffffffff1681526020019081526020016000206000828254612407919061443b565b92505081905550816002600083815260200190815260200160002060006101000a81548173ffffffffffffffffffffffffffffffffffffffff021916908373ffffffffffffffffffffffffffffffffffffffff160217905550808273ffffffffffffffffffffffffffffffffffffffff168473ffffffffffffffffffffffffffffffffffffffff167fddf252ad1be2c89b69c2b068fc378daa952ba7f163c4a11628f55a4df523b3ef60405160405180910390a46124c6838383612a84565b505050565b6000612710905090565b6000826124e28584612a89565b1490509392505050565b612506828260405180602001604052806000815250612afe565b5050565b6000600a60009054906101000a900473ffffffffffffffffffffffffffffffffffffffff16905081600a60006101000a81548173ffffffffffffffffffffffffffffffffffffffff021916908373ffffffffffffffffffffffffffffffffffffffff1602179055508173ffffffffffffffffffffffffffffffffffffffff168173ffffffffffffffffffffffffffffffffffffffff167f8be0079c531659141344cd1fd0a4f28419497f9722a3daafe3b4186f6b6457e060405160405180910390a35050565b8173ffffffffffffffffffffffffffffffffffffffff168373ffffffffffffffffffffffffffffffffffffffff160361263e576040517f08c379a000000000000000000000000000000000000000000000000000000000815260040161263590614be4565b60405180910390fd5b80600560008573ffffffffffffffffffffffffffffffffffffffff1673ffffffffffffffffffffffffffffffffffffffff16815260200190815260200160002060008473ffffffffffffffffffffffffffffffffffffffff1673ffffffffffffffffffffffffffffffffffffffff16815260200190815260200160002060006101000a81548160ff0219169083151502179055508173ffffffffffffffffffffffffffffffffffffffff168373ffffffffffffffffffffffffffffffffffffffff167f17307eab39ab6107e8899845ad3d59bd9653f200f220920489ca2b5937696c318360405161272f91906134a1565b60405180910390a3505050565b612747848484612265565b61275384848484612b59565b612792576040517f08c379a000000000000000000000000000000000000000000000000000000000815260040161278990614c76565b60405180910390fd5b50505050565b6060600082036127df576040518060400160405280600181526020017f300000000000000000000000000000000000000000000000000000000000000081525090506128f3565b600082905060005b600082146128115780806127fa906146e2565b915050600a8261280a919061408d565b91506127e7565b60008167ffffffffffffffff81111561282d5761282c613924565b5b6040519080825280601f01601f19166020018201604052801561285f5781602001600182028036833780820191505090505b5090505b600085146128ec576001826128789190614b64565b9150600a856128879190614c96565b6030612893919061443b565b60f81b8183815181106128a9576128a8614523565b5b60200101907effffffffffffffffffffffffffffffffffffffffffffffffffffffffffffff1916908160001a905350600a856128e5919061408d565b9450612863565b8093505050505b919050565b60007f780e9d63000000000000000000000000000000000000000000000000000000007bffffffffffffffffffffffffffffffffffffffffffffffffffffffff1916827bffffffffffffffffffffffffffffffffffffffffffffffffffffffff1916148061296b575061296a82612ce0565b5b9050919050565b61297d838383612dc2565b600073ffffffffffffffffffffffffffffffffffffffff168373ffffffffffffffffffffffffffffffffffffffff16036129bf576129ba81612dc7565b6129fe565b8173ffffffffffffffffffffffffffffffffffffffff168373ffffffffffffffffffffffffffffffffffffffff16146129fd576129fc8382612e10565b5b5b600073ffffffffffffffffffffffffffffffffffffffff168273ffffffffffffffffffffffffffffffffffffffff1603612a4057612a3b81612f7d565b612a7f565b8273ffffffffffffffffffffffffffffffffffffffff168273ffffffffffffffffffffffffffffffffffffffff1614612a7e57612a7d828261304e565b5b5b505050565b505050565b60008082905060005b8451811015612af3576000858281518110612ab057612aaf614523565b5b60200260200101519050808311612ad257612acb83826130cd565b9250612adf565b612adc81846130cd565b92505b508080612aeb906146e2565b915050612a92565b508091505092915050565b612b0883836130e4565b612b156000848484612b59565b612b54576040517f08c379a0000000000000000000000000000000000000000000000000000000008152600401612b4b90614c76565b60405180910390fd5b505050565b6000612b7a8473ffffffffffffffffffffffffffffffffffffffff166132bd565b15612cd3578373ffffffffffffffffffffffffffffffffffffffff1663150b7a02612ba3611ec5565b8786866040518563ffffffff1660e01b8152600401612bc59493929190614d1c565b6020604051808303816000875af1925050508015612c0157506040513d601f19601f82011682018060405250810190612bfe9190614d7d565b60015b612c83573d8060008114612c31576040519150601f19603f3d011682016040523d82523d6000602084013e612c36565b606091505b506000815103612c7b576040517f08c379a0000000000000000000000000000000000000000000000000000000008152600401612c7290614c76565b60405180910390fd5b805181602001fd5b63150b7a0260e01b7bffffffffffffffffffffffffffffffffffffffffffffffffffffffff1916817bffffffffffffffffffffffffffffffffffffffffffffffffffffffff191614915050612cd8565b600190505b949350505050565b60007f80ac58cd000000000000000000000000000000000000000000000000000000007bffffffffffffffffffffffffffffffffffffffffffffffffffffffff1916827bffffffffffffffffffffffffffffffffffffffffffffffffffffffff19161480612dab57507f5b5e139f000000000000000000000000000000000000000000000000000000007bffffffffffffffffffffffffffffffffffffffffffffffffffffffff1916827bffffffffffffffffffffffffffffffffffffffffffffffffffffffff1916145b80612dbb5750612dba826132e0565b5b9050919050565b505050565b6008805490506009600083815260200190815260200160002081905550600881908060018154018082558091505060019003906000526020600020016000909190919091505550565b60006001612e1d84611526565b612e279190614b64565b9050600060076000848152602001908152602001600020549050818114612f0c576000600660008673ffffffffffffffffffffffffffffffffffffffff1673ffffffffffffffffffffffffffffffffffffffff168152602001908152602001600020600084815260200190815260200160002054905080600660008773ffffffffffffffffffffffffffffffffffffffff1673ffffffffffffffffffffffffffffffffffffffff168152602001908152602001600020600084815260200190815260200160002081905550816007600083815260200190815260200160002081905550505b6007600084815260200190815260200160002060009055600660008573ffffffffffffffffffffffffffffffffffffffff1673ffffffffffffffffffffffffffffffffffffffff16815260200190815260200160002060008381526020019081526020016000206000905550505050565b60006001600880549050612f919190614b64565b9050600060096000848152602001908152602001600020549050600060088381548110612fc157612fc0614523565b5b906000526020600020015490508060088381548110612fe357612fe2614523565b5b90600052602060002001819055508160096000838152602001908152602001600020819055506009600085815260200190815260200160002060009055600880548061303257613031614daa565b5b6001900381819060005260206000200160009055905550505050565b600061305983611526565b905081600660008573ffffffffffffffffffffffffffffffffffffffff1673ffffffffffffffffffffffffffffffffffffffff168152602001908152602001600020600083815260200190815260200160002081905550806007600084815260200190815260200160002081905550505050565b600082600052816020526040600020905092915050565b600073ffffffffffffffffffffffffffffffffffffffff168273ffffffffffffffffffffffffffffffffffffffff1603613153576040517f08c379a000000000000000000000000000000000000000000000000000000000815260040161314a90614e25565b60405180910390fd5b61315c81612062565b1561319c576040517f08c379a000000000000000000000000000000000000000000000000000000000815260040161319390614e91565b60405180910390fd5b6131a860008383612972565b6001600360008473ffffffffffffffffffffffffffffffffffffffff1673ffffffffffffffffffffffffffffffffffffffff16815260200190815260200160002060008282546131f8919061443b565b92505081905550816002600083815260200190815260200160002060006101000a81548173ffffffffffffffffffffffffffffffffffffffff021916908373ffffffffffffffffffffffffffffffffffffffff160217905550808273ffffffffffffffffffffffffffffffffffffffff16600073ffffffffffffffffffffffffffffffffffffffff167fddf252ad1be2c89b69c2b068fc378daa952ba7f163c4a11628f55a4df523b3ef60405160405180910390a46132b960008383612a84565b5050565b6000808273ffffffffffffffffffffffffffffffffffffffff163b119050919050565b60007f01ffc9a7000000000000000000000000000000000000000000000000000000007bffffffffffffffffffffffffffffffffffffffffffffffffffffffff1916827bffffffffffffffffffffffffffffffffffffffffffffffffffffffff1916149050919050565b82805461335690613d5c565b90600052602060002090601f01602090048101928261337857600085556133bf565b82601f1061339157805160ff19168380011785556133bf565b828001600101855582156133bf579182015b828111156133be5782518255916020019190600101906133a3565b5b5090506133cc91906133d0565b5090565b5b808211156133e95760008160009055506001016133d1565b5090565b6000604051905090565b600080fd5b600080fd5b60007fffffffff0000000000000000000000000000000000000000000000000000000082169050919050565b61343681613401565b811461344157600080fd5b50565b6000813590506134538161342d565b92915050565b60006020828403121561346f5761346e6133f7565b5b600061347d84828501613444565b91505092915050565b60008115159050919050565b61349b81613486565b82525050565b60006020820190506134b66000830184613492565b92915050565b600073ffffffffffffffffffffffffffffffffffffffff82169050919050565b60006134e7826134bc565b9050919050565b6134f7816134dc565b811461350257600080fd5b50565b600081359050613514816134ee565b92915050565b60006bffffffffffffffffffffffff82169050919050565b61353b8161351a565b811461354657600080fd5b50565b60008135905061355881613532565b92915050565b60008060408385031215613575576135746133f7565b5b600061358385828601613505565b925050602061359485828601613549565b9150509250929050565b600081519050919050565b600082825260208201905092915050565b60005b838110156135d85780820151818401526020810190506135bd565b838111156135e7576000848401525b50505050565b6000601f19601f8301169050919050565b60006136098261359e565b61361381856135a9565b93506136238185602086016135ba565b61362c816135ed565b840191505092915050565b6000602082019050818103600083015261365181846135fe565b905092915050565b6000819050919050565b61366c81613659565b811461367757600080fd5b50565b60008135905061368981613663565b92915050565b6000602082840312156136a5576136a46133f7565b5b60006136b38482850161367a565b91505092915050565b6136c5816134dc565b82525050565b60006020820190506136e060008301846136bc565b92915050565b600080604083850312156136fd576136fc6133f7565b5b600061370b85828601613505565b925050602061371c8582860161367a565b9150509250929050565b61372f81613659565b82525050565b600060208201905061374a6000830184613726565b92915050565b600080600060608486031215613769576137686133f7565b5b600061377786828701613505565b935050602061378886828701613505565b92505060406137998682870161367a565b9150509250925092565b600080604083850312156137ba576137b96133f7565b5b60006137c88582860161367a565b92505060206137d98582860161367a565b9150509250929050565b60006040820190506137f860008301856136bc565b6138056020830184613726565b9392505050565b6000819050919050565b61381f8161380c565b82525050565b600060208201905061383a6000830184613816565b92915050565b600080fd5b600080fd5b600080fd5b60008083601f84011261386557613864613840565b5b8235905067ffffffffffffffff81111561388257613881613845565b5b60208301915083602082028301111561389e5761389d61384a565b5b9250929050565b600080602083850312156138bc576138bb6133f7565b5b600083013567ffffffffffffffff8111156138da576138d96133fc565b5b6138e68582860161384f565b92509250509250929050565b600060208284031215613908576139076133f7565b5b600061391684828501613505565b91505092915050565b600080fd5b7f4e487b7100000000000000000000000000000000000000000000000000000000600052604160045260246000fd5b61395c826135ed565b810181811067ffffffffffffffff8211171561397b5761397a613924565b5b80604052505050565b600061398e6133ed565b905061399a8282613953565b919050565b600067ffffffffffffffff8211156139ba576139b9613924565b5b6139c3826135ed565b9050602081019050919050565b82818337600083830152505050565b60006139f26139ed8461399f565b613984565b905082815260208101848484011115613a0e57613a0d61391f565b5b613a198482856139d0565b509392505050565b600082601f830112613a3657613a35613840565b5b8135613a468482602086016139df565b91505092915050565b600060208284031215613a6557613a646133f7565b5b600082013567ffffffffffffffff811115613a8357613a826133fc565b5b613a8f84828501613a21565b91505092915050565b613aa181613486565b8114613aac57600080fd5b50565b600081359050613abe81613a98565b92915050565b60008060408385031215613adb57613ada6133f7565b5b6000613ae985828601613505565b9250506020613afa85828601613aaf565b9150509250929050565b600067ffffffffffffffff821115613b1f57613b1e613924565b5b613b28826135ed565b9050602081019050919050565b6000613b48613b4384613b04565b613984565b905082815260208101848484011115613b6457613b6361391f565b5b613b6f8482856139d0565b509392505050565b600082601f830112613b8c57613b8b613840565b5b8135613b9c848260208601613b35565b91505092915050565b60008060008060808587031215613bbf57613bbe6133f7565b5b6000613bcd87828801613505565b9450506020613bde87828801613505565b9350506040613bef8782880161367a565b925050606085013567ffffffffffffffff811115613c1057613c0f6133fc565b5b613c1c87828801613b77565b91505092959194509250565b60008060408385031215613c3f57613c3e6133f7565b5b6000613c4d85828601613505565b9250506020613c5e85828601613505565b9150509250929050565b613c718161380c565b8114613c7c57600080fd5b50565b600081359050613c8e81613c68565b92915050565b600060208284031215613caa57613ca96133f7565b5b6000613cb884828501613c7f565b91505092915050565b7f4f776e61626c653a2063616c6c6572206973206e6f7420746865206f776e6572600082015250565b6000613cf76020836135a9565b9150613d0282613cc1565b602082019050919050565b60006020820190508181036000830152613d2681613cea565b9050919050565b7f4e487b7100000000000000000000000000000000000000000000000000000000600052602260045260246000fd5b60006002820490506001821680613d7457607f821691505b602082108103613d8757613d86613d2d565b5b50919050565b7f4552433732313a20617070726f76656420717565727920666f72206e6f6e657860008201527f697374656e7420746f6b656e0000000000000000000000000000000000000000602082015250565b6000613de9602c836135a9565b9150613df482613d8d565b604082019050919050565b60006020820190508181036000830152613e1881613ddc565b9050919050565b7f4552433732313a20617070726f76616c20746f2063757272656e74206f776e6560008201527f7200000000000000000000000000000000000000000000000000000000000000602082015250565b6000613e7b6021836135a9565b9150613e8682613e1f565b604082019050919050565b60006020820190508181036000830152613eaa81613e6e565b9050919050565b7f4552433732313a20617070726f76652063616c6c6572206973206e6f74206f7760008201527f6e6572206e6f7220617070726f76656420666f7220616c6c0000000000000000602082015250565b6000613f0d6038836135a9565b9150613f1882613eb1565b604082019050919050565b60006020820190508181036000830152613f3c81613f00565b9050919050565b7f4552433732313a207472616e736665722063616c6c6572206973206e6f74206f60008201527f776e6572206e6f7220617070726f766564000000000000000000000000000000602082015250565b6000613f9f6031836135a9565b9150613faa82613f43565b604082019050919050565b60006020820190508181036000830152613fce81613f92565b9050919050565b7f4e487b7100000000000000000000000000000000000000000000000000000000600052601160045260246000fd5b600061400f82613659565b915061401a83613659565b9250817fffffffffffffffffffffffffffffffffffffffffffffffffffffffffffffffff048311821515161561405357614052613fd5565b5b828202905092915050565b7f4e487b7100000000000000000000000000000000000000000000000000000000600052601260045260246000fd5b600061409882613659565b91506140a383613659565b9250826140b3576140b261405e565b5b828204905092915050565b7f455243373231456e756d657261626c653a206f776e657220696e646578206f7560008201527f74206f6620626f756e6473000000000000000000000000000000000000000000602082015250565b600061411a602b836135a9565b9150614125826140be565b604082019050919050565b600060208201905081810360008301526141498161410d565b9050919050565b7f4e6f7420707269766174652073616c6500000000000000000000000000000000600082015250565b60006141866010836135a9565b915061419182614150565b602082019050919050565b600060208201905081810360008301526141b581614179565b9050919050565b7f496e73756666696369656e742066756e64730000000000000000000000000000600082015250565b60006141f26012836135a9565b91506141fd826141bc565b602082019050919050565b60006020820190508181036000830152614221816141e5565b9050919050565b7f45786365656473206d617820737570706c790000000000000000000000000000600082015250565b600061425e6012836135a9565b915061426982614228565b602082019050919050565b6000602082019050818103600083015261428d81614251565b9050919050565b7f426f7473206e6f7420616c6c6f77656400000000000000000000000000000000600082015250565b60006142ca6010836135a9565b91506142d582614294565b602082019050919050565b600060208201905081810360008301526142f9816142bd565b9050919050565b7f43616e2774206d696e27742074686174206d756368204e465473000000000000600082015250565b6000614336601a836135a9565b915061434182614300565b602082019050919050565b6000602082019050818103600083015261436581614329565b9050919050565b60008160601b9050919050565b60006143848261436c565b9050919050565b600061439682614379565b9050919050565b6143ae6143a9826134dc565b61438b565b82525050565b60006143c0828461439d565b60148201915081905092915050565b7f496e76616c69642070726f6f6600000000000000000000000000000000000000600082015250565b6000614405600d836135a9565b9150614410826143cf565b602082019050919050565b60006020820190508181036000830152614434816143f8565b9050919050565b600061444682613659565b915061445183613659565b9250827fffffffffffffffffffffffffffffffffffffffffffffffffffffffffffffffff0382111561448657614485613fd5565b5b828201905092915050565b7f455243373231456e756d657261626c653a20676c6f62616c20696e646578206f60008201527f7574206f6620626f756e64730000000000000000000000000000000000000000602082015250565b60006144ed602c836135a9565b91506144f882614491565b604082019050919050565b6000602082019050818103600083015261451c816144e0565b9050919050565b7f4e487b7100000000000000000000000000000000000000000000000000000000600052603260045260246000fd5b7f4552433732313a206f776e657220717565727920666f72206e6f6e657869737460008201527f656e7420746f6b656e0000000000000000000000000000000000000000000000602082015250565b60006145ae6029836135a9565b91506145b982614552565b604082019050919050565b600060208201905081810360008301526145dd816145a1565b9050919050565b7f4552433732313a2062616c616e636520717565727920666f7220746865207a6560008201527f726f206164647265737300000000000000000000000000000000000000000000602082015250565b6000614640602a836135a9565b915061464b826145e4565b604082019050919050565b6000602082019050818103600083015261466f81614633565b9050919050565b7f4e6f74207075626c69632073616c650000000000000000000000000000000000600082015250565b60006146ac600f836135a9565b91506146b782614676565b602082019050919050565b600060208201905081810360008301526146db8161469f565b9050919050565b60006146ed82613659565b91507fffffffffffffffffffffffffffffffffffffffffffffffffffffffffffffffff820361471f5761471e613fd5565b5b600182019050919050565b600081905092915050565b60008190508160005260206000209050919050565b6000815461475781613d5c565b614761818661472a565b9450600182166000811461477c576001811461478d576147c0565b60ff198316865281860193506147c0565b61479685614735565b60005b838110156147b857815481890152600182019150602081019050614799565b838801955050505b50505092915050565b60006147d48261359e565b6147de818561472a565b93506147ee8185602086016135ba565b80840191505092915050565b6000614806828561474a565b915061481282846147c9565b91508190509392505050565b7f4f776e61626c653a206e6577206f776e657220697320746865207a65726f206160008201527f6464726573730000000000000000000000000000000000000000000000000000602082015250565b600061487a6026836135a9565b91506148858261481e565b604082019050919050565b600060208201905081810360008301526148a98161486d565b9050919050565b7f455243323938313a20726f79616c7479206665652077696c6c2065786365656460008201527f2073616c65507269636500000000000000000000000000000000000000000000602082015250565b600061490c602a836135a9565b9150614917826148b0565b604082019050919050565b6000602082019050818103600083015261493b816148ff565b9050919050565b7f455243323938313a20696e76616c696420726563656976657200000000000000600082015250565b60006149786019836135a9565b915061498382614942565b602082019050919050565b600060208201905081810360008301526149a78161496b565b9050919050565b7f4552433732313a206f70657261746f7220717565727920666f72206e6f6e657860008201527f697374656e7420746f6b656e0000000000000000000000000000000000000000602082015250565b6000614a0a602c836135a9565b9150614a15826149ae565b604082019050919050565b60006020820190508181036000830152614a39816149fd565b9050919050565b7f4552433732313a207472616e736665722066726f6d20696e636f72726563742060008201527f6f776e6572000000000000000000000000000000000000000000000000000000602082015250565b6000614a9c6025836135a9565b9150614aa782614a40565b604082019050919050565b60006020820190508181036000830152614acb81614a8f565b9050919050565b7f4552433732313a207472616e7366657220746f20746865207a65726f2061646460008201527f7265737300000000000000000000000000000000000000000000000000000000602082015250565b6000614b2e6024836135a9565b9150614b3982614ad2565b604082019050919050565b60006020820190508181036000830152614b5d81614b21565b9050919050565b6000614b6f82613659565b9150614b7a83613659565b925082821015614b8d57614b8c613fd5565b5b828203905092915050565b7f4552433732313a20617070726f766520746f2063616c6c657200000000000000600082015250565b6000614bce6019836135a9565b9150614bd982614b98565b602082019050919050565b60006020820190508181036000830152614bfd81614bc1565b9050919050565b7f4552433732313a207472616e7366657220746f206e6f6e20455243373231526560008201527f63656976657220696d706c656d656e7465720000000000000000000000000000602082015250565b6000614c606032836135a9565b9150614c6b82614c04565b604082019050919050565b60006020820190508181036000830152614c8f81614c53565b9050919050565b6000614ca182613659565b9150614cac83613659565b925082614cbc57614cbb61405e565b5b828206905092915050565b600081519050919050565b600082825260208201905092915050565b6000614cee82614cc7565b614cf88185614cd2565b9350614d088185602086016135ba565b614d11816135ed565b840191505092915050565b6000608082019050614d3160008301876136bc565b614d3e60208301866136bc565b614d4b6040830185613726565b8181036060830152614d5d8184614ce3565b905095945050505050565b600081519050614d778161342d565b92915050565b600060208284031215614d9357614d926133f7565b5b6000614da184828501614d68565b91505092915050565b7f4e487b7100000000000000000000000000000000000000000000000000000000600052603160045260246000fd5b7f4552433732313a206d696e7420746f20746865207a65726f2061646472657373600082015250565b6000614e0f6020836135a9565b9150614e1a82614dd9565b602082019050919050565b60006020820190508181036000830152614e3e81614e02565b9050919050565b7f4552433732313a20746f6b656e20616c7265616479206d696e74656400000000600082015250565b6000614e7b601c836135a9565b9150614e8682614e45565b602082019050919050565b60006020820190508181036000830152614eaa81614e6e565b905091905056fea26469706673582212204102fe43eaeb18daebc0a19c921ddde7ad70c10d6c4f517a3633f40923219d9064736f6c634300080d0033",
  "immutableReferences": {},
  "source": "//SPDX-License-Identifier: Unlicense\npragma solidity ^0.8.0;\n\nimport \"@openzeppelin/contracts/utils/Counters.sol\";\nimport \"@openzeppelin/contracts/token/ERC721/extensions/ERC721Enumerable.sol\";\nimport \"@openzeppelin/contracts/access/Ownable.sol\";\nimport \"@openzeppelin/contracts/utils/Strings.sol\";\nimport \"@openzeppelin/contracts/token/ERC721/extensions/ERC721Royalty.sol\";\nimport \"@openzeppelin/contracts/token/common/ERC2981.sol\";\nimport \"@openzeppelin/contracts/utils/cryptography/MerkleProof.sol\";\n\ncontract Yokai is ERC721Enumerable, Ownable, ERC2981 {\n    using Counters for Counters.Counter;\n    using Strings for uint256;\n    uint256 MAX_TO_MINT = 808;\n    uint256 public MINT_PER_PERS = 4;\n    uint256 public tokenPrice;\n    bytes32 public merkleRoot = 0x1430dc8121327593cc6a9dda199e0ddb7e3f053323e3142cdf7a7d1a71feab82;\n    string public URI;\n    address payable saleReceiver;\n    bool public REVEAL = false;\n    bool public public_sale = false;\n    mapping(address => bool) public whitelist;\n\n    constructor(\n        string memory initialURI,\n        address royaltyReceiver\n    ) ERC721(\"Yokai\", \"YOK\") {\n        URI = initialURI;\n        setPrice(190000000000000000);\n        setDefaultRoyalty(royaltyReceiver, 900);\n        updateSaleReceiver(royaltyReceiver);\n    }\n\n    /**\n     * @dev See {IERC165-supportsInterface}.\n     */\n    function supportsInterface(bytes4 interfaceId) public view virtual override(ERC721Enumerable, ERC2981) returns (bool) {\n        return super.supportsInterface(interfaceId);\n    }\n\n    /**\n     * @dev See {ERC721-_burn}. This override additionally clears the royalty information for the token.\n     */\n    function _burn(uint256 tokenId) internal virtual override {\n        super._burn(tokenId);\n        _resetTokenRoyalty(tokenId);\n    }\n\n     /**\n     * @dev Sets the royalty information that all ids in this contract will default to.\n     *\n     * Requirements:\n     *\n     * - `receiver` cannot be the zero address.\n     * - `feeNumerator` cannot be greater than the fee denominator.\n     */\n    function setDefaultRoyalty(address receiver, uint96 feeNumerator) public onlyOwner {\n        _setDefaultRoyalty(receiver, feeNumerator);\n    }\n\n    /// @dev seul ladmin du contrat peut lappeler, pour changer la racine\n    ///  de l'arbre de merkel de la whitelist\n    function setWhitelistRoot(bytes32 _root) public onlyOwner {\n        merkleRoot = _root;\n    }\n\n    function tokenURI(uint256 tokenId)\n        public\n        view\n        override\n        returns (string memory)\n    {\n        if (REVEAL) {\n            return string(abi.encodePacked(URI, tokenId.toString()));\n        }\n        return URI;\n    }\n\n    function toggleReveal(string memory updatedURI) public onlyOwner {\n        REVEAL = !REVEAL;\n        URI = updatedURI;\n    }\n\n    function switchSaleType() public onlyOwner {\n        public_sale = !public_sale;\n    }\n\n    function updateSaleReceiver(address receiver) public onlyOwner {\n        saleReceiver = payable(receiver);\n    }\n\n    function setPrice(uint256 price) public onlyOwner {\n        tokenPrice = price;\n    }\n\n    function setMaxMintPerPerson(uint256 numberMax) public onlyOwner {\n        MINT_PER_PERS = numberMax;\n    }\n\n    function whitelistMint(bytes32[] calldata _merkleProof) public payable {\n        require(!public_sale, \"Not private sale\");\n        require(msg.value >= tokenPrice, \"Insufficient funds\");\n        require(totalSupply() < MAX_TO_MINT, \"Exceeds max supply\");\n        require(msg.sender == tx.origin, \"Bots not allowed\");\n        require(balanceOf(msg.sender) < 1, \"Can't min't that much NFTs\");\n        bytes32 leaf = keccak256(abi.encodePacked(msg.sender));\n        require(MerkleProof.verify(_merkleProof, merkleRoot, leaf), \"Invalid proof\");\n\n        uint256 tokenId = totalSupply();\n        tokenId += 1;\n        _safeMint(msg.sender, tokenId);\n        saleReceiver.transfer(msg.value);\n    }\n\n    function mint(uint256 num) public payable {\n        require(public_sale, \"Not public sale\");\n        require(msg.value >= tokenPrice * num, \"Insufficient funds\");\n        require(totalSupply() + num <= MAX_TO_MINT, \"Exceeds max supply\");\n        require(msg.sender == tx.origin, \"Bots not allowed\");\n        require(balanceOf(msg.sender) + num <= MINT_PER_PERS, \"Can't min't that much NFTs\");\n\n        uint256 tokenId = totalSupply();\n        for(uint256 i=0; i < num; i++) {\n            tokenId += 1;\n            _safeMint(msg.sender, tokenId);\n        }\n        saleReceiver.transfer(msg.value);\n\n/*         if(public_sale){\n            require(balanceOf(msg.sender) + num <= MINT_PER_PERS, \"Can't min't that much NFTs\");\n            for(uint256 i=0; i < num; i++) {\n                tokenId += 1;\n                _safeMint(msg.sender, tokenId);\n            }\n            saleReceiver.transfer(msg.value);\n        } else {\n            require(whitelist[msg.sender], \"Not whitelisted\");\n            require(num==1, \"Can't min't more than one NFT\");\n            tokenId += 1;\n            whitelist[msg.sender] = false;\n            _safeMint(msg.sender, tokenId);\n            saleReceiver.transfer(msg.value);\n        } */\n        \n    }\n}",
  "sourcePath": "/Users/garancebreitbach/Documents/Enzo/contracts/Yokai.sol",
  "compiler": {
    "name": "solc",
    "version": "0.8.13+commit.abaa5c0e.Emscripten.clang"
  },
  "schemaVersion": "3.4.6",
  "updatedAt": "2022-04-15T13:19:17.567Z",
  "networkType": "ethereum",
  "devdoc": {
    "kind": "dev",
    "methods": {
      "approve(address,uint256)": {
        "details": "See {IERC721-approve}."
      },
      "balanceOf(address)": {
        "details": "See {IERC721-balanceOf}."
      },
      "getApproved(uint256)": {
        "details": "See {IERC721-getApproved}."
      },
      "isApprovedForAll(address,address)": {
        "details": "See {IERC721-isApprovedForAll}."
      },
      "name()": {
        "details": "See {IERC721Metadata-name}."
      },
      "owner()": {
        "details": "Returns the address of the current owner."
      },
      "ownerOf(uint256)": {
        "details": "See {IERC721-ownerOf}."
      },
      "renounceOwnership()": {
        "details": "Leaves the contract without owner. It will not be possible to call `onlyOwner` functions anymore. Can only be called by the current owner. NOTE: Renouncing ownership will leave the contract without an owner, thereby removing any functionality that is only available to the owner."
      },
      "royaltyInfo(uint256,uint256)": {
        "details": "Returns how much royalty is owed and to whom, based on a sale price that may be denominated in any unit of exchange. The royalty amount is denominated and should be payed in that same unit of exchange."
      },
      "safeTransferFrom(address,address,uint256)": {
        "details": "See {IERC721-safeTransferFrom}."
      },
      "safeTransferFrom(address,address,uint256,bytes)": {
        "details": "See {IERC721-safeTransferFrom}."
      },
      "setApprovalForAll(address,bool)": {
        "details": "See {IERC721-setApprovalForAll}."
      },
      "setDefaultRoyalty(address,uint96)": {
        "details": "Sets the royalty information that all ids in this contract will default to. Requirements: - `receiver` cannot be the zero address. - `feeNumerator` cannot be greater than the fee denominator."
      },
      "setWhitelistRoot(bytes32)": {
        "details": "seul ladmin du contrat peut lappeler, pour changer la racine  de l'arbre de merkel de la whitelist"
      },
      "supportsInterface(bytes4)": {
        "details": "See {IERC165-supportsInterface}."
      },
      "symbol()": {
        "details": "See {IERC721Metadata-symbol}."
      },
      "tokenByIndex(uint256)": {
        "details": "See {IERC721Enumerable-tokenByIndex}."
      },
      "tokenOfOwnerByIndex(address,uint256)": {
        "details": "See {IERC721Enumerable-tokenOfOwnerByIndex}."
      },
      "tokenURI(uint256)": {
        "details": "See {IERC721Metadata-tokenURI}."
      },
      "totalSupply()": {
        "details": "See {IERC721Enumerable-totalSupply}."
      },
      "transferFrom(address,address,uint256)": {
        "details": "See {IERC721-transferFrom}."
      },
      "transferOwnership(address)": {
        "details": "Transfers ownership of the contract to a new account (`newOwner`). Can only be called by the current owner."
      }
    },
    "version": 1
  },
  "userdoc": {
    "kind": "user",
    "methods": {},
    "version": 1
  }
}